{
  "contractName": "HelloWorld",
  "abi": [
    {
      "anonymous": false,
      "inputs": [
        {
          "indexed": false,
          "internalType": "string",
          "name": "",
          "type": "string"
        }
      ],
      "name": "Greeted",
      "type": "event"
    },
    {
      "inputs": [],
      "name": "owner",
      "outputs": [
        {
          "internalType": "address payable",
          "name": "",
          "type": "address"
        }
      ],
      "stateMutability": "view",
      "type": "function",
      "constant": true
    },
    {
      "inputs": [
        {
          "internalType": "address",
          "name": "ownerAddress",
          "type": "address"
        }
      ],
      "name": "initialize",
      "outputs": [],
      "stateMutability": "nonpayable",
      "type": "function"
    },
    {
      "inputs": [
        {
          "internalType": "string",
          "name": "name",
          "type": "string"
        }
      ],
      "name": "setLastName",
      "outputs": [],
      "stateMutability": "nonpayable",
      "type": "function"
    },
    {
      "inputs": [],
      "name": "getLastName",
      "outputs": [
        {
          "internalType": "string",
          "name": "name",
          "type": "string"
        }
      ],
      "stateMutability": "view",
      "type": "function",
      "constant": true
    },
    {
      "inputs": [
        {
          "internalType": "string",
          "name": "name",
          "type": "string"
        }
      ],
      "name": "greet",
      "outputs": [
        {
          "internalType": "string",
          "name": "greetingMessage",
          "type": "string"
        },
        {
          "internalType": "string",
          "name": "greetedName",
          "type": "string"
        }
      ],
      "stateMutability": "nonpayable",
      "type": "function"
    }
  ],
  "bytecode": "0x608060405234801561001057600080fd5b506107fd806100206000396000f3fe608060405234801561001057600080fd5b5060043610610073577c010000000000000000000000000000000000000000000000000000000060003504636b10928281146100785780638da5cb5b14610096578063932754f9146100db578063c4d66de8146100f0578063ead710c414610103575b600080fd5b610080610124565b60405161008d91906104a0565b60405180910390f35b6002546100b69073ffffffffffffffffffffffffffffffffffffffff1681565b60405173ffffffffffffffffffffffffffffffffffffffff909116815260200161008d565b6100ee6100e93660046104e9565b6101b6565b005b6100ee6100fe36600461059a565b610306565b6101166101113660046104e9565b6103e3565b60405161008d9291906105d0565b606060018054610133906105fe565b80601f016020809104026020016040519081016040528092919081815260200182805461015f906105fe565b80156101ac5780601f10610181576101008083540402835291602001916101ac565b820191906000526020600020905b81548152906001019060200180831161018f57829003601f168201915b5050505050905090565b6000815111610226576040517f08c379a000000000000000000000000000000000000000000000000000000000815260206004820152600a60248201527f454d5054595f4e414d450000000000000000000000000000000000000000000060448201526064015b60405180910390fd5b6040517f667269657a610000000000000000000000000000000000000000000000000000602082015260260160405160208183030381529060405280519060200120816040516020016102799190610651565b60405160208183030381529060405280519060200120036102f6576040517f08c379a000000000000000000000000000000000000000000000000000000000815260206004820152601660248201527f465249455a415f49535f4e4f545f57454c434f4d454400000000000000000000604482015260640161021d565b600161030282826106bc565b5050565b60005460ff1615610399576040517f08c379a000000000000000000000000000000000000000000000000000000000815260206004820152602560248201527f434f4e54524143545f4841535f414c52454144595f4245454e5f494e4954494160448201527f4c495a4544000000000000000000000000000000000000000000000000000000606482015260840161021d565b6000805460ff191660011790556002805473ffffffffffffffffffffffffffffffffffffffff90921673ffffffffffffffffffffffffffffffffffffffff19909216919091179055565b6060806000836040516020016103f99190610782565b6040516020818303038152906040529050610413846101b6565b7f86c72623bfb28b1853210aea9821352c090fab6c4dad5b846cbff870467aa3688460405161044291906104a0565b60405180910390a193915050565b60005b8381101561046b578181015183820152602001610453565b50506000910152565b6000815180845261048c816020860160208601610450565b601f01601f19169290920160200192915050565b6020815260006104b36020830184610474565b9392505050565b7f4e487b7100000000000000000000000000000000000000000000000000000000600052604160045260246000fd5b6000602082840312156104fb57600080fd5b813567ffffffffffffffff8082111561051357600080fd5b818401915084601f83011261052757600080fd5b813581811115610539576105396104ba565b604051601f8201601f19908116603f01168101908382118183101715610561576105616104ba565b8160405282815287602084870101111561057a57600080fd5b826020860160208301376000928101602001929092525095945050505050565b6000602082840312156105ac57600080fd5b813573ffffffffffffffffffffffffffffffffffffffff811681146104b357600080fd5b6040815260006105e36040830185610474565b82810360208401526105f58185610474565b95945050505050565b60028104600182168061061257607f821691505b60208210810361064b577f4e487b7100000000000000000000000000000000000000000000000000000000600052602260045260246000fd5b50919050565b60008251610663818460208701610450565b9190910192915050565b601f8211156106b7576000818152602081206020601f860104810160208610156106945750805b6020601f860104820191505b818110156106b3578281556001016106a0565b5050505b505050565b815167ffffffffffffffff8111156106d6576106d66104ba565b6106ea816106e484546105fe565b8461066d565b602080601f83116001811461072357600084156107075750858301515b60028086026008870290910a60001904198216178655506106b3565b600085815260208120601f198616915b8281101561075257888601518255948401946001909101908401610733565b508582101561077257878501516008601f88160260020a60001904191681555b5050505050600202600101905550565b7f48656c6c6f2000000000000000000000000000000000000000000000000000008152600082516107ba816006850160208701610450565b919091016006019291505056fea2646970667358221220e696c4a43348f966b20235da992983b91e730173062e1f56c403377bb02fa0f164736f6c63430008110033",
  "immutableReferences": {},
  "source": "// SPDX-License-Identifier: MIT\npragma solidity >=0.4.22 <0.9.0;\n\ncontract HelloWorld {\n\n  bool private initialized;\n\n  string private lastName;\n  address payable public owner;\n\n  event Greeted(string);\n\n\n  function initialize(address ownerAddress) public {\n    require(!initialized, \"CONTRACT_HAS_ALREADY_BEEN_INITIALIZED\");\n    initialized = true;\n\n    owner = payable(ownerAddress);\n  }\n\n  function setLastName(string memory name) public {\n    require(bytes(name).length > 0, \"EMPTY_NAME\");\n\n    if (keccak256(abi.encodePacked(name)) == keccak256(abi.encodePacked(\"frieza\"))) {\n      revert(\"FRIEZA_IS_NOT_WELCOMED\");\n    }\n\n\n\n    lastName = name;\n  }\n\n  function getLastName() public view returns (string memory name) {\n    return lastName;\n  }\n\n  function greet(string memory name) public returns (string memory greetingMessage, string memory greetedName) {\n    string memory greeting = string(abi.encodePacked(\"Hello \", name));\n    setLastName(name);\n    emit Greeted(name);\n    return (greeting, name);\n  }\n}\n",
  "sourcePath": "/home/runner/work/hackathon-bogota/hackathon-bogota/contracts/HelloWorld.sol",
  "compiler": {
    "name": "solc",
    "version": "0.8.17+commit.8df45f5f.Emscripten.clang"
  },
  "schemaVersion": "3.4.3",
  "updatedAt": "2022-10-16T18:53:18.699Z",
  "networkType": "ethereum",
  "devdoc": {
    "kind": "dev",
    "methods": {},
    "version": 1
  },
  "userdoc": {
    "kind": "user",
    "methods": {},
    "version": 1
  }
}